{
  "_format": "hh-sol-artifact-1",
  "contractName": "MyNFT",
  "sourceName": "contracts/MyNFT.sol",
  "abi": [
    {
      "inputs": [],
      "stateMutability": "nonpayable",
      "type": "constructor"
    },
    {
      "inputs": [
        {
          "internalType": "address",
          "name": "sender",
          "type": "address"
        },
        {
          "internalType": "uint256",
          "name": "tokenId",
          "type": "uint256"
        },
        {
          "internalType": "address",
          "name": "owner",
          "type": "address"
        }
      ],
      "name": "ERC721IncorrectOwner",
      "type": "error"
    },
    {
      "inputs": [
        {
          "internalType": "address",
          "name": "operator",
          "type": "address"
        },
        {
          "internalType": "uint256",
          "name": "tokenId",
          "type": "uint256"
        }
      ],
      "name": "ERC721InsufficientApproval",
      "type": "error"
    },
    {
      "inputs": [
        {
          "internalType": "address",
          "name": "approver",
          "type": "address"
        }
      ],
      "name": "ERC721InvalidApprover",
      "type": "error"
    },
    {
      "inputs": [
        {
          "internalType": "address",
          "name": "operator",
          "type": "address"
        }
      ],
      "name": "ERC721InvalidOperator",
      "type": "error"
    },
    {
      "inputs": [
        {
          "internalType": "address",
          "name": "owner",
          "type": "address"
        }
      ],
      "name": "ERC721InvalidOwner",
      "type": "error"
    },
    {
      "inputs": [
        {
          "internalType": "address",
          "name": "receiver",
          "type": "address"
        }
      ],
      "name": "ERC721InvalidReceiver",
      "type": "error"
    },
    {
      "inputs": [
        {
          "internalType": "address",
          "name": "sender",
          "type": "address"
        }
      ],
      "name": "ERC721InvalidSender",
      "type": "error"
    },
    {
      "inputs": [
        {
          "internalType": "uint256",
          "name": "tokenId",
          "type": "uint256"
        }
      ],
      "name": "ERC721NonexistentToken",
      "type": "error"
    },
    {
      "inputs": [
        {
          "internalType": "address",
          "name": "owner",
          "type": "address"
        }
      ],
      "name": "OwnableInvalidOwner",
      "type": "error"
    },
    {
      "inputs": [
        {
          "internalType": "address",
          "name": "account",
          "type": "address"
        }
      ],
      "name": "OwnableUnauthorizedAccount",
      "type": "error"
    },
    {
      "anonymous": false,
      "inputs": [
        {
          "indexed": true,
          "internalType": "address",
          "name": "owner",
          "type": "address"
        },
        {
          "indexed": true,
          "internalType": "address",
          "name": "approved",
          "type": "address"
        },
        {
          "indexed": true,
          "internalType": "uint256",
          "name": "tokenId",
          "type": "uint256"
        }
      ],
      "name": "Approval",
      "type": "event"
    },
    {
      "anonymous": false,
      "inputs": [
        {
          "indexed": true,
          "internalType": "address",
          "name": "owner",
          "type": "address"
        },
        {
          "indexed": true,
          "internalType": "address",
          "name": "operator",
          "type": "address"
        },
        {
          "indexed": false,
          "internalType": "bool",
          "name": "approved",
          "type": "bool"
        }
      ],
      "name": "ApprovalForAll",
      "type": "event"
    },
    {
      "anonymous": false,
      "inputs": [
        {
          "indexed": false,
          "internalType": "uint256",
          "name": "_fromTokenId",
          "type": "uint256"
        },
        {
          "indexed": false,
          "internalType": "uint256",
          "name": "_toTokenId",
          "type": "uint256"
        }
      ],
      "name": "BatchMetadataUpdate",
      "type": "event"
    },
    {
      "anonymous": false,
      "inputs": [
        {
          "indexed": false,
          "internalType": "uint256",
          "name": "_tokenId",
          "type": "uint256"
        }
      ],
      "name": "MetadataUpdate",
      "type": "event"
    },
    {
      "anonymous": false,
      "inputs": [
        {
          "indexed": true,
          "internalType": "address",
          "name": "previousOwner",
          "type": "address"
        },
        {
          "indexed": true,
          "internalType": "address",
          "name": "newOwner",
          "type": "address"
        }
      ],
      "name": "OwnershipTransferred",
      "type": "event"
    },
    {
      "anonymous": false,
      "inputs": [
        {
          "indexed": true,
          "internalType": "address",
          "name": "from",
          "type": "address"
        },
        {
          "indexed": true,
          "internalType": "address",
          "name": "to",
          "type": "address"
        },
        {
          "indexed": true,
          "internalType": "uint256",
          "name": "tokenId",
          "type": "uint256"
        }
      ],
      "name": "Transfer",
      "type": "event"
    },
    {
      "inputs": [
        {
          "internalType": "address",
          "name": "to",
          "type": "address"
        },
        {
          "internalType": "uint256",
          "name": "tokenId",
          "type": "uint256"
        }
      ],
      "name": "approve",
      "outputs": [],
      "stateMutability": "nonpayable",
      "type": "function"
    },
    {
      "inputs": [
        {
          "internalType": "address",
          "name": "owner",
          "type": "address"
        }
      ],
      "name": "balanceOf",
      "outputs": [
        {
          "internalType": "uint256",
          "name": "",
          "type": "uint256"
        }
      ],
      "stateMutability": "view",
      "type": "function"
    },
    {
      "inputs": [
        {
          "internalType": "uint256",
          "name": "tokenId",
          "type": "uint256"
        }
      ],
      "name": "getApproved",
      "outputs": [
        {
          "internalType": "address",
          "name": "",
          "type": "address"
        }
      ],
      "stateMutability": "view",
      "type": "function"
    },
    {
      "inputs": [
        {
          "internalType": "address",
          "name": "owner",
          "type": "address"
        },
        {
          "internalType": "address",
          "name": "operator",
          "type": "address"
        }
      ],
      "name": "isApprovedForAll",
      "outputs": [
        {
          "internalType": "bool",
          "name": "",
          "type": "bool"
        }
      ],
      "stateMutability": "view",
      "type": "function"
    },
    {
      "inputs": [],
      "name": "name",
      "outputs": [
        {
          "internalType": "string",
          "name": "",
          "type": "string"
        }
      ],
      "stateMutability": "view",
      "type": "function"
    },
    {
      "inputs": [],
      "name": "owner",
      "outputs": [
        {
          "internalType": "address",
          "name": "",
          "type": "address"
        }
      ],
      "stateMutability": "view",
      "type": "function"
    },
    {
      "inputs": [
        {
          "internalType": "uint256",
          "name": "tokenId",
          "type": "uint256"
        }
      ],
      "name": "ownerOf",
      "outputs": [
        {
          "internalType": "address",
          "name": "",
          "type": "address"
        }
      ],
      "stateMutability": "view",
      "type": "function"
    },
    {
      "inputs": [],
      "name": "renounceOwnership",
      "outputs": [],
      "stateMutability": "nonpayable",
      "type": "function"
    },
    {
      "inputs": [
        {
          "internalType": "address",
          "name": "receiver",
          "type": "address"
        },
        {
          "internalType": "string",
          "name": "uri",
          "type": "string"
        }
      ],
      "name": "safeMint",
      "outputs": [
        {
          "internalType": "uint256",
          "name": "",
          "type": "uint256"
        }
      ],
      "stateMutability": "nonpayable",
      "type": "function"
    },
    {
      "inputs": [
        {
          "internalType": "address",
          "name": "from",
          "type": "address"
        },
        {
          "internalType": "address",
          "name": "to",
          "type": "address"
        },
        {
          "internalType": "uint256",
          "name": "tokenId",
          "type": "uint256"
        }
      ],
      "name": "safeTransferFrom",
      "outputs": [],
      "stateMutability": "nonpayable",
      "type": "function"
    },
    {
      "inputs": [
        {
          "internalType": "address",
          "name": "from",
          "type": "address"
        },
        {
          "internalType": "address",
          "name": "to",
          "type": "address"
        },
        {
          "internalType": "uint256",
          "name": "tokenId",
          "type": "uint256"
        },
        {
          "internalType": "bytes",
          "name": "data",
          "type": "bytes"
        }
      ],
      "name": "safeTransferFrom",
      "outputs": [],
      "stateMutability": "nonpayable",
      "type": "function"
    },
    {
      "inputs": [
        {
          "internalType": "address",
          "name": "operator",
          "type": "address"
        },
        {
          "internalType": "bool",
          "name": "approved",
          "type": "bool"
        }
      ],
      "name": "setApprovalForAll",
      "outputs": [],
      "stateMutability": "nonpayable",
      "type": "function"
    },
    {
      "inputs": [
        {
          "internalType": "bytes4",
          "name": "interfaceId",
          "type": "bytes4"
        }
      ],
      "name": "supportsInterface",
      "outputs": [
        {
          "internalType": "bool",
          "name": "",
          "type": "bool"
        }
      ],
      "stateMutability": "view",
      "type": "function"
    },
    {
      "inputs": [],
      "name": "symbol",
      "outputs": [
        {
          "internalType": "string",
          "name": "",
          "type": "string"
        }
      ],
      "stateMutability": "view",
      "type": "function"
    },
    {
      "inputs": [
        {
          "internalType": "uint256",
          "name": "tokenId",
          "type": "uint256"
        }
      ],
      "name": "tokenURI",
      "outputs": [
        {
          "internalType": "string",
          "name": "",
          "type": "string"
        }
      ],
      "stateMutability": "view",
      "type": "function"
    },
    {
      "inputs": [
        {
          "internalType": "address",
          "name": "from",
          "type": "address"
        },
        {
          "internalType": "address",
          "name": "to",
          "type": "address"
        },
        {
          "internalType": "uint256",
          "name": "tokenId",
          "type": "uint256"
        }
      ],
      "name": "transferFrom",
      "outputs": [],
      "stateMutability": "nonpayable",
      "type": "function"
    },
    {
      "inputs": [
        {
          "internalType": "address",
          "name": "newOwner",
          "type": "address"
        }
      ],
      "name": "transferOwnership",
      "outputs": [],
      "stateMutability": "nonpayable",
      "type": "function"
    },
    {
      "inputs": [
        {
          "internalType": "address",
          "name": "sender",
          "type": "address"
        },
        {
          "internalType": "address",
          "name": "receiver",
          "type": "address"
        },
        {
          "internalType": "uint256",
          "name": "tokenId",
          "type": "uint256"
        },
        {
          "internalType": "uint256",
          "name": "price",
          "type": "uint256"
        }
      ],
      "name": "transferWithPayment",
      "outputs": [],
      "stateMutability": "payable",
      "type": "function"
    }
  ],
  "bytecode": "0x608060405260006008553480156200001657600080fd5b50336040518060400160405280600581526020017f4d794e46540000000000000000000000000000000000000000000000000000008152506040518060400160405280600481526020017f4d4e465400000000000000000000000000000000000000000000000000000000815250816000908162000095919062000477565b508060019081620000a7919062000477565b505050600073ffffffffffffffffffffffffffffffffffffffff168173ffffffffffffffffffffffffffffffffffffffff16036200011f5760006040517f1e4fbdf7000000000000000000000000000000000000000000000000000000008152600401620001169190620005a3565b60405180910390fd5b62000130816200013760201b60201c565b50620005c0565b6000600760009054906101000a900473ffffffffffffffffffffffffffffffffffffffff16905081600760006101000a81548173ffffffffffffffffffffffffffffffffffffffff021916908373ffffffffffffffffffffffffffffffffffffffff1602179055508173ffffffffffffffffffffffffffffffffffffffff168173ffffffffffffffffffffffffffffffffffffffff167f8be0079c531659141344cd1fd0a4f28419497f9722a3daafe3b4186f6b6457e060405160405180910390a35050565b600081519050919050565b7f4e487b7100000000000000000000000000000000000000000000000000000000600052604160045260246000fd5b7f4e487b7100000000000000000000000000000000000000000000000000000000600052602260045260246000fd5b600060028204905060018216806200027f57607f821691505b60208210810362000295576200029462000237565b5b50919050565b60008190508160005260206000209050919050565b60006020601f8301049050919050565b600082821b905092915050565b600060088302620002ff7fffffffffffffffffffffffffffffffffffffffffffffffffffffffffffffffff82620002c0565b6200030b8683620002c0565b95508019841693508086168417925050509392505050565b6000819050919050565b6000819050919050565b600062000358620003526200034c8462000323565b6200032d565b62000323565b9050919050565b6000819050919050565b620003748362000337565b6200038c62000383826200035f565b848454620002cd565b825550505050565b600090565b620003a362000394565b620003b081848462000369565b505050565b5b81811015620003d857620003cc60008262000399565b600181019050620003b6565b5050565b601f8211156200042757620003f1816200029b565b620003fc84620002b0565b810160208510156200040c578190505b620004246200041b85620002b0565b830182620003b5565b50505b505050565b600082821c905092915050565b60006200044c600019846008026200042c565b1980831691505092915050565b600062000467838362000439565b9150826002028217905092915050565b6200048282620001fd565b67ffffffffffffffff8111156200049e576200049d62000208565b5b620004aa825462000266565b620004b7828285620003dc565b600060209050601f831160018114620004ef5760008415620004da578287015190505b620004e6858262000459565b86555062000556565b601f198416620004ff866200029b565b60005b82811015620005295784890151825560018201915060208501945060208101905062000502565b8683101562000549578489015162000545601f89168262000439565b8355505b6001600288020188555050505b505050505050565b600073ffffffffffffffffffffffffffffffffffffffff82169050919050565b60006200058b826200055e565b9050919050565b6200059d816200057e565b82525050565b6000602082019050620005ba600083018462000592565b92915050565b612a8180620005d06000396000f3fe6080604052600436106101095760003560e01c8063715018a611610095578063b88d4fde11610064578063b88d4fde1461035a578063c87b56dd14610383578063d204c45e146103c0578063e985e9c5146103fd578063f2fde38b1461043a57610109565b8063715018a6146102c45780638da5cb5b146102db57806395d89b4114610306578063a22cb4651461033157610109565b806323b872dd116100dc57806323b872dd146101dc57806342842e0e146102055780636352211e1461022e5780636b8d8b4c1461026b57806370a082311461028757610109565b806301ffc9a71461010e57806306fdde031461014b578063081812fc14610176578063095ea7b3146101b3575b600080fd5b34801561011a57600080fd5b5061013560048036038101906101309190611d9a565b610463565b6040516101429190611de2565b60405180910390f35b34801561015757600080fd5b506101606104c4565b60405161016d9190611e8d565b60405180910390f35b34801561018257600080fd5b5061019d60048036038101906101989190611ee5565b610556565b6040516101aa9190611f53565b60405180910390f35b3480156101bf57600080fd5b506101da60048036038101906101d59190611f9a565b610572565b005b3480156101e857600080fd5b5061020360048036038101906101fe9190611fda565b610588565b005b34801561021157600080fd5b5061022c60048036038101906102279190611fda565b61068a565b005b34801561023a57600080fd5b5061025560048036038101906102509190611ee5565b6106aa565b6040516102629190611f53565b60405180910390f35b6102856004803603810190610280919061202d565b6106bc565b005b34801561029357600080fd5b506102ae60048036038101906102a99190612094565b610828565b6040516102bb91906120d0565b60405180910390f35b3480156102d057600080fd5b506102d96108e2565b005b3480156102e757600080fd5b506102f06108f6565b6040516102fd9190611f53565b60405180910390f35b34801561031257600080fd5b5061031b610920565b6040516103289190611e8d565b60405180910390f35b34801561033d57600080fd5b5061035860048036038101906103539190612117565b6109b2565b005b34801561036657600080fd5b50610381600480360381019061037c919061228c565b6109c8565b005b34801561038f57600080fd5b506103aa60048036038101906103a59190611ee5565b6109ed565b6040516103b79190611e8d565b60405180910390f35b3480156103cc57600080fd5b506103e760048036038101906103e291906123b0565b610b00565b6040516103f491906120d0565b60405180910390f35b34801561040957600080fd5b50610424600480360381019061041f919061240c565b610ba3565b6040516104319190611de2565b60405180910390f35b34801561044657600080fd5b50610461600480360381019061045c9190612094565b610c37565b005b6000634906490660e01b7bffffffffffffffffffffffffffffffffffffffffffffffffffffffff1916827bffffffffffffffffffffffffffffffffffffffffffffffffffffffff191614806104bd57506104bc82610cbd565b5b9050919050565b6060600080546104d39061247b565b80601f01602080910402602001604051908101604052809291908181526020018280546104ff9061247b565b801561054c5780601f106105215761010080835404028352916020019161054c565b820191906000526020600020905b81548152906001019060200180831161052f57829003601f168201915b5050505050905090565b600061056182610d9f565b5061056b82610e27565b9050919050565b610584828261057f610e64565b610e6c565b5050565b600073ffffffffffffffffffffffffffffffffffffffff168273ffffffffffffffffffffffffffffffffffffffff16036105fa5760006040517f64a0ae920000000000000000000000000000000000000000000000000000000081526004016105f19190611f53565b60405180910390fd5b600061060e8383610609610e64565b610e7e565b90508373ffffffffffffffffffffffffffffffffffffffff168173ffffffffffffffffffffffffffffffffffffffff1614610684578382826040517f64283d7b00000000000000000000000000000000000000000000000000000000815260040161067b939291906124ac565b60405180910390fd5b50505050565b6106a5838383604051806020016040528060008152506109c8565b505050565b60006106b582610d9f565b9050919050565b8373ffffffffffffffffffffffffffffffffffffffff166106dc836106aa565b73ffffffffffffffffffffffffffffffffffffffff1614610732576040517f08c379a00000000000000000000000000000000000000000000000000000000081526004016107299061252f565b60405180910390fd5b80341015610775576040517f08c379a000000000000000000000000000000000000000000000000000000000815260040161076c9061259b565b60405180910390fd5b8373ffffffffffffffffffffffffffffffffffffffff166108fc349081150290604051600060405180830381858888f193505050501580156107bb573d6000803e3d6000fd5b506107c784848461068a565b818373ffffffffffffffffffffffffffffffffffffffff168573ffffffffffffffffffffffffffffffffffffffff167fddf252ad1be2c89b69c2b068fc378daa952ba7f163c4a11628f55a4df523b3ef60405160405180910390a450505050565b60008073ffffffffffffffffffffffffffffffffffffffff168273ffffffffffffffffffffffffffffffffffffffff160361089b5760006040517f89c62b640000000000000000000000000000000000000000000000000000000081526004016108929190611f53565b60405180910390fd5b600360008373ffffffffffffffffffffffffffffffffffffffff1673ffffffffffffffffffffffffffffffffffffffff168152602001908152602001600020549050919050565b6108ea611098565b6108f4600061111f565b565b6000600760009054906101000a900473ffffffffffffffffffffffffffffffffffffffff16905090565b60606001805461092f9061247b565b80601f016020809104026020016040519081016040528092919081815260200182805461095b9061247b565b80156109a85780601f1061097d576101008083540402835291602001916109a8565b820191906000526020600020905b81548152906001019060200180831161098b57829003601f168201915b5050505050905090565b6109c46109bd610e64565b83836111e5565b5050565b6109d3848484610588565b6109e76109de610e64565b85858585611354565b50505050565b60606109f882610d9f565b506000600660008481526020019081526020016000208054610a199061247b565b80601f0160208091040260200160405190810160405280929190818152602001828054610a459061247b565b8015610a925780601f10610a6757610100808354040283529160200191610a92565b820191906000526020600020905b815481529060010190602001808311610a7557829003601f168201915b505050505090506000610aa3611505565b90506000815103610ab8578192505050610afb565b600082511115610aed578082604051602001610ad59291906125f7565b60405160208183030381529060405292505050610afb565b610af68461151c565b925050505b919050565b6000610b0a611098565b60006008549050610b1b8482611585565b610b2581846115a3565b60086000815480929190610b389061264a565b9190505550808473ffffffffffffffffffffffffffffffffffffffff16600073ffffffffffffffffffffffffffffffffffffffff167fddf252ad1be2c89b69c2b068fc378daa952ba7f163c4a11628f55a4df523b3ef60405160405180910390a48091505092915050565b6000600560008473ffffffffffffffffffffffffffffffffffffffff1673ffffffffffffffffffffffffffffffffffffffff16815260200190815260200160002060008373ffffffffffffffffffffffffffffffffffffffff1673ffffffffffffffffffffffffffffffffffffffff16815260200190815260200160002060009054906101000a900460ff16905092915050565b610c3f611098565b600073ffffffffffffffffffffffffffffffffffffffff168173ffffffffffffffffffffffffffffffffffffffff1603610cb15760006040517f1e4fbdf7000000000000000000000000000000000000000000000000000000008152600401610ca89190611f53565b60405180910390fd5b610cba8161111f565b50565b60007f80ac58cd000000000000000000000000000000000000000000000000000000007bffffffffffffffffffffffffffffffffffffffffffffffffffffffff1916827bffffffffffffffffffffffffffffffffffffffffffffffffffffffff19161480610d8857507f5b5e139f000000000000000000000000000000000000000000000000000000007bffffffffffffffffffffffffffffffffffffffffffffffffffffffff1916827bffffffffffffffffffffffffffffffffffffffffffffffffffffffff1916145b80610d985750610d97826115ff565b5b9050919050565b600080610dab83611669565b9050600073ffffffffffffffffffffffffffffffffffffffff168173ffffffffffffffffffffffffffffffffffffffff1603610e1e57826040517f7e273289000000000000000000000000000000000000000000000000000000008152600401610e1591906120d0565b60405180910390fd5b80915050919050565b60006004600083815260200190815260200160002060009054906101000a900473ffffffffffffffffffffffffffffffffffffffff169050919050565b600033905090565b610e7983838360016116a6565b505050565b600080610e8a84611669565b9050600073ffffffffffffffffffffffffffffffffffffffff168373ffffffffffffffffffffffffffffffffffffffff1614610ecc57610ecb81848661186b565b5b600073ffffffffffffffffffffffffffffffffffffffff168173ffffffffffffffffffffffffffffffffffffffff1614610f5d57610f0e6000856000806116a6565b6001600360008373ffffffffffffffffffffffffffffffffffffffff1673ffffffffffffffffffffffffffffffffffffffff168152602001908152602001600020600082825403925050819055505b600073ffffffffffffffffffffffffffffffffffffffff168573ffffffffffffffffffffffffffffffffffffffff1614610fe0576001600360008773ffffffffffffffffffffffffffffffffffffffff1673ffffffffffffffffffffffffffffffffffffffff168152602001908152602001600020600082825401925050819055505b846002600086815260200190815260200160002060006101000a81548173ffffffffffffffffffffffffffffffffffffffff021916908373ffffffffffffffffffffffffffffffffffffffff160217905550838573ffffffffffffffffffffffffffffffffffffffff168273ffffffffffffffffffffffffffffffffffffffff167fddf252ad1be2c89b69c2b068fc378daa952ba7f163c4a11628f55a4df523b3ef60405160405180910390a4809150509392505050565b6110a0610e64565b73ffffffffffffffffffffffffffffffffffffffff166110be6108f6565b73ffffffffffffffffffffffffffffffffffffffff161461111d576110e1610e64565b6040517f118cdaa70000000000000000000000000000000000000000000000000000000081526004016111149190611f53565b60405180910390fd5b565b6000600760009054906101000a900473ffffffffffffffffffffffffffffffffffffffff16905081600760006101000a81548173ffffffffffffffffffffffffffffffffffffffff021916908373ffffffffffffffffffffffffffffffffffffffff1602179055508173ffffffffffffffffffffffffffffffffffffffff168173ffffffffffffffffffffffffffffffffffffffff167f8be0079c531659141344cd1fd0a4f28419497f9722a3daafe3b4186f6b6457e060405160405180910390a35050565b600073ffffffffffffffffffffffffffffffffffffffff168273ffffffffffffffffffffffffffffffffffffffff160361125657816040517f5b08ba1800000000000000000000000000000000000000000000000000000000815260040161124d9190611f53565b60405180910390fd5b80600560008573ffffffffffffffffffffffffffffffffffffffff1673ffffffffffffffffffffffffffffffffffffffff16815260200190815260200160002060008473ffffffffffffffffffffffffffffffffffffffff1673ffffffffffffffffffffffffffffffffffffffff16815260200190815260200160002060006101000a81548160ff0219169083151502179055508173ffffffffffffffffffffffffffffffffffffffff168373ffffffffffffffffffffffffffffffffffffffff167f17307eab39ab6107e8899845ad3d59bd9653f200f220920489ca2b5937696c31836040516113479190611de2565b60405180910390a3505050565b60008373ffffffffffffffffffffffffffffffffffffffff163b11156114fe578273ffffffffffffffffffffffffffffffffffffffff1663150b7a02868685856040518563ffffffff1660e01b81526004016113b394939291906126e7565b6020604051808303816000875af19250505080156113ef57506040513d601f19601f820116820180604052508101906113ec9190612748565b60015b611473573d806000811461141f576040519150601f19603f3d011682016040523d82523d6000602084013e611424565b606091505b50600081510361146b57836040517f64a0ae920000000000000000000000000000000000000000000000000000000081526004016114629190611f53565b60405180910390fd5b805181602001fd5b63150b7a0260e01b7bffffffffffffffffffffffffffffffffffffffffffffffffffffffff1916817bffffffffffffffffffffffffffffffffffffffffffffffffffffffff1916146114fc57836040517f64a0ae920000000000000000000000000000000000000000000000000000000081526004016114f39190611f53565b60405180910390fd5b505b5050505050565b606060405180602001604052806000815250905090565b606061152782610d9f565b506000611532611505565b90506000815111611552576040518060200160405280600081525061157d565b8061155c8461192f565b60405160200161156d9291906125f7565b6040516020818303038152906040525b915050919050565b61159f8282604051806020016040528060008152506119fd565b5050565b806006600084815260200190815260200160002090816115c39190612921565b507ff8e1a15aba9398e019f0b49df1a4fde98ee17ae345cb5f6b5e2c27f5033e8ce7826040516115f391906120d0565b60405180910390a15050565b60007f01ffc9a7000000000000000000000000000000000000000000000000000000007bffffffffffffffffffffffffffffffffffffffffffffffffffffffff1916827bffffffffffffffffffffffffffffffffffffffffffffffffffffffff1916149050919050565b60006002600083815260200190815260200160002060009054906101000a900473ffffffffffffffffffffffffffffffffffffffff169050919050565b80806116df5750600073ffffffffffffffffffffffffffffffffffffffff168273ffffffffffffffffffffffffffffffffffffffff1614155b156118135760006116ef84610d9f565b9050600073ffffffffffffffffffffffffffffffffffffffff168373ffffffffffffffffffffffffffffffffffffffff161415801561175a57508273ffffffffffffffffffffffffffffffffffffffff168173ffffffffffffffffffffffffffffffffffffffff1614155b801561176d575061176b8184610ba3565b155b156117af57826040517fa9fbf51f0000000000000000000000000000000000000000000000000000000081526004016117a69190611f53565b60405180910390fd5b811561181157838573ffffffffffffffffffffffffffffffffffffffff168273ffffffffffffffffffffffffffffffffffffffff167f8c5be1e5ebec7d5bd14f71427d1e84f3dd0314c0f7b2291e5b200ac8c7c3b92560405160405180910390a45b505b836004600085815260200190815260200160002060006101000a81548173ffffffffffffffffffffffffffffffffffffffff021916908373ffffffffffffffffffffffffffffffffffffffff16021790555050505050565b611876838383611a21565b61192a57600073ffffffffffffffffffffffffffffffffffffffff168373ffffffffffffffffffffffffffffffffffffffff16036118eb57806040517f7e2732890000000000000000000000000000000000000000000000000000000081526004016118e291906120d0565b60405180910390fd5b81816040517f177e802f0000000000000000000000000000000000000000000000000000000081526004016119219291906129f3565b60405180910390fd5b505050565b60606000600161193e84611ae2565b01905060008167ffffffffffffffff81111561195d5761195c612161565b5b6040519080825280601f01601f19166020018201604052801561198f5781602001600182028036833780820191505090505b509050600082602001820190505b6001156119f2578080600190039150507f3031323334353637383961626364656600000000000000000000000000000000600a86061a8153600a85816119e6576119e5612a1c565b5b0494506000850361199d575b819350505050919050565b611a078383611c35565b611a1c611a12610e64565b6000858585611354565b505050565b60008073ffffffffffffffffffffffffffffffffffffffff168373ffffffffffffffffffffffffffffffffffffffff1614158015611ad957508273ffffffffffffffffffffffffffffffffffffffff168473ffffffffffffffffffffffffffffffffffffffff161480611a9a5750611a998484610ba3565b5b80611ad857508273ffffffffffffffffffffffffffffffffffffffff16611ac083610e27565b73ffffffffffffffffffffffffffffffffffffffff16145b5b90509392505050565b600080600090507a184f03e93ff9f4daa797ed6e38ed64bf6a1f0100000000000000008310611b40577a184f03e93ff9f4daa797ed6e38ed64bf6a1f0100000000000000008381611b3657611b35612a1c565b5b0492506040810190505b6d04ee2d6d415b85acef81000000008310611b7d576d04ee2d6d415b85acef81000000008381611b7357611b72612a1c565b5b0492506020810190505b662386f26fc100008310611bac57662386f26fc100008381611ba257611ba1612a1c565b5b0492506010810190505b6305f5e1008310611bd5576305f5e1008381611bcb57611bca612a1c565b5b0492506008810190505b6127108310611bfa576127108381611bf057611bef612a1c565b5b0492506004810190505b60648310611c1d5760648381611c1357611c12612a1c565b5b0492506002810190505b600a8310611c2c576001810190505b80915050919050565b600073ffffffffffffffffffffffffffffffffffffffff168273ffffffffffffffffffffffffffffffffffffffff1603611ca75760006040517f64a0ae92000000000000000000000000000000000000000000000000000000008152600401611c9e9190611f53565b60405180910390fd5b6000611cb583836000610e7e565b9050600073ffffffffffffffffffffffffffffffffffffffff168173ffffffffffffffffffffffffffffffffffffffff1614611d295760006040517f73c6ac6e000000000000000000000000000000000000000000000000000000008152600401611d209190611f53565b60405180910390fd5b505050565b6000604051905090565b600080fd5b600080fd5b60007fffffffff0000000000000000000000000000000000000000000000000000000082169050919050565b611d7781611d42565b8114611d8257600080fd5b50565b600081359050611d9481611d6e565b92915050565b600060208284031215611db057611daf611d38565b5b6000611dbe84828501611d85565b91505092915050565b60008115159050919050565b611ddc81611dc7565b82525050565b6000602082019050611df76000830184611dd3565b92915050565b600081519050919050565b600082825260208201905092915050565b60005b83811015611e37578082015181840152602081019050611e1c565b60008484015250505050565b6000601f19601f8301169050919050565b6000611e5f82611dfd565b611e698185611e08565b9350611e79818560208601611e19565b611e8281611e43565b840191505092915050565b60006020820190508181036000830152611ea78184611e54565b905092915050565b6000819050919050565b611ec281611eaf565b8114611ecd57600080fd5b50565b600081359050611edf81611eb9565b92915050565b600060208284031215611efb57611efa611d38565b5b6000611f0984828501611ed0565b91505092915050565b600073ffffffffffffffffffffffffffffffffffffffff82169050919050565b6000611f3d82611f12565b9050919050565b611f4d81611f32565b82525050565b6000602082019050611f686000830184611f44565b92915050565b611f7781611f32565b8114611f8257600080fd5b50565b600081359050611f9481611f6e565b92915050565b60008060408385031215611fb157611fb0611d38565b5b6000611fbf85828601611f85565b9250506020611fd085828601611ed0565b9150509250929050565b600080600060608486031215611ff357611ff2611d38565b5b600061200186828701611f85565b935050602061201286828701611f85565b925050604061202386828701611ed0565b9150509250925092565b6000806000806080858703121561204757612046611d38565b5b600061205587828801611f85565b945050602061206687828801611f85565b935050604061207787828801611ed0565b925050606061208887828801611ed0565b91505092959194509250565b6000602082840312156120aa576120a9611d38565b5b60006120b884828501611f85565b91505092915050565b6120ca81611eaf565b82525050565b60006020820190506120e560008301846120c1565b92915050565b6120f481611dc7565b81146120ff57600080fd5b50565b600081359050612111816120eb565b92915050565b6000806040838503121561212e5761212d611d38565b5b600061213c85828601611f85565b925050602061214d85828601612102565b9150509250929050565b600080fd5b600080fd5b7f4e487b7100000000000000000000000000000000000000000000000000000000600052604160045260246000fd5b61219982611e43565b810181811067ffffffffffffffff821117156121b8576121b7612161565b5b80604052505050565b60006121cb611d2e565b90506121d78282612190565b919050565b600067ffffffffffffffff8211156121f7576121f6612161565b5b61220082611e43565b9050602081019050919050565b82818337600083830152505050565b600061222f61222a846121dc565b6121c1565b90508281526020810184848401111561224b5761224a61215c565b5b61225684828561220d565b509392505050565b600082601f83011261227357612272612157565b5b813561228384826020860161221c565b91505092915050565b600080600080608085870312156122a6576122a5611d38565b5b60006122b487828801611f85565b94505060206122c587828801611f85565b93505060406122d687828801611ed0565b925050606085013567ffffffffffffffff8111156122f7576122f6611d3d565b5b6123038782880161225e565b91505092959194509250565b600067ffffffffffffffff82111561232a57612329612161565b5b61233382611e43565b9050602081019050919050565b600061235361234e8461230f565b6121c1565b90508281526020810184848401111561236f5761236e61215c565b5b61237a84828561220d565b509392505050565b600082601f83011261239757612396612157565b5b81356123a7848260208601612340565b91505092915050565b600080604083850312156123c7576123c6611d38565b5b60006123d585828601611f85565b925050602083013567ffffffffffffffff8111156123f6576123f5611d3d565b5b61240285828601612382565b9150509250929050565b6000806040838503121561242357612422611d38565b5b600061243185828601611f85565b925050602061244285828601611f85565b9150509250929050565b7f4e487b7100000000000000000000000000000000000000000000000000000000600052602260045260246000fd5b6000600282049050600182168061249357607f821691505b6020821081036124a6576124a561244c565b5b50919050565b60006060820190506124c16000830186611f44565b6124ce60208301856120c1565b6124db6040830184611f44565b949350505050565b7f53656e64657220646f65736e2774206f776e2074686973204e46540000000000600082015250565b6000612519601b83611e08565b9150612524826124e3565b602082019050919050565b600060208201905081810360008301526125488161250c565b9050919050565b7f496e73756666696369656e74207061796d656e742073656e7400000000000000600082015250565b6000612585601983611e08565b91506125908261254f565b602082019050919050565b600060208201905081810360008301526125b481612578565b9050919050565b600081905092915050565b60006125d182611dfd565b6125db81856125bb565b93506125eb818560208601611e19565b80840191505092915050565b600061260382856125c6565b915061260f82846125c6565b91508190509392505050565b7f4e487b7100000000000000000000000000000000000000000000000000000000600052601160045260246000fd5b600061265582611eaf565b91507fffffffffffffffffffffffffffffffffffffffffffffffffffffffffffffffff82036126875761268661261b565b5b600182019050919050565b600081519050919050565b600082825260208201905092915050565b60006126b982612692565b6126c3818561269d565b93506126d3818560208601611e19565b6126dc81611e43565b840191505092915050565b60006080820190506126fc6000830187611f44565b6127096020830186611f44565b61271660408301856120c1565b818103606083015261272881846126ae565b905095945050505050565b60008151905061274281611d6e565b92915050565b60006020828403121561275e5761275d611d38565b5b600061276c84828501612733565b91505092915050565b60008190508160005260206000209050919050565b60006020601f8301049050919050565b600082821b905092915050565b6000600883026127d77fffffffffffffffffffffffffffffffffffffffffffffffffffffffffffffffff8261279a565b6127e1868361279a565b95508019841693508086168417925050509392505050565b6000819050919050565b600061281e61281961281484611eaf565b6127f9565b611eaf565b9050919050565b6000819050919050565b61283883612803565b61284c61284482612825565b8484546127a7565b825550505050565b600090565b612861612854565b61286c81848461282f565b505050565b5b8181101561289057612885600082612859565b600181019050612872565b5050565b601f8211156128d5576128a681612775565b6128af8461278a565b810160208510156128be578190505b6128d26128ca8561278a565b830182612871565b50505b505050565b600082821c905092915050565b60006128f8600019846008026128da565b1980831691505092915050565b600061291183836128e7565b9150826002028217905092915050565b61292a82611dfd565b67ffffffffffffffff81111561294357612942612161565b5b61294d825461247b565b612958828285612894565b600060209050601f83116001811461298b5760008415612979578287015190505b6129838582612905565b8655506129eb565b601f19841661299986612775565b60005b828110156129c15784890151825560018201915060208501945060208101905061299c565b868310156129de57848901516129da601f8916826128e7565b8355505b6001600288020188555050505b505050505050565b6000604082019050612a086000830185611f44565b612a1560208301846120c1565b9392505050565b7f4e487b7100000000000000000000000000000000000000000000000000000000600052601260045260246000fdfea26469706673582212205f9bc3e035f979a1f6afdfaa951db491fa88818997de540f50261d763faea14f64736f6c63430008140033",
  "linkReferences": {},
  "deployedLinkReferences": {}
}